{
  "_format": "hh-sol-artifact-1",
  "contractName": "DeBay",
  "sourceName": "contracts/DeBay.sol",
  "abi": [
    {
      "inputs": [],
      "stateMutability": "nonpayable",
      "type": "constructor"
    },
    {
      "anonymous": false,
      "inputs": [
        {
          "indexed": true,
          "internalType": "address",
          "name": "account",
          "type": "address"
        },
        {
          "indexed": true,
          "internalType": "address",
          "name": "operator",
          "type": "address"
        },
        {
          "indexed": false,
          "internalType": "bool",
          "name": "approved",
          "type": "bool"
        }
      ],
      "name": "ApprovalForAll",
      "type": "event"
    },
    {
      "anonymous": false,
      "inputs": [
        {
          "indexed": true,
          "internalType": "address",
          "name": "previousOwner",
          "type": "address"
        },
        {
          "indexed": true,
          "internalType": "address",
          "name": "newOwner",
          "type": "address"
        }
      ],
      "name": "OwnershipTransferred",
      "type": "event"
    },
    {
      "anonymous": false,
      "inputs": [
        {
          "indexed": true,
          "internalType": "address",
          "name": "operator",
          "type": "address"
        },
        {
          "indexed": true,
          "internalType": "address",
          "name": "from",
          "type": "address"
        },
        {
          "indexed": true,
          "internalType": "address",
          "name": "to",
          "type": "address"
        },
        {
          "indexed": false,
          "internalType": "uint256[]",
          "name": "ids",
          "type": "uint256[]"
        },
        {
          "indexed": false,
          "internalType": "uint256[]",
          "name": "values",
          "type": "uint256[]"
        }
      ],
      "name": "TransferBatch",
      "type": "event"
    },
    {
      "anonymous": false,
      "inputs": [
        {
          "indexed": true,
          "internalType": "address",
          "name": "operator",
          "type": "address"
        },
        {
          "indexed": true,
          "internalType": "address",
          "name": "from",
          "type": "address"
        },
        {
          "indexed": true,
          "internalType": "address",
          "name": "to",
          "type": "address"
        },
        {
          "indexed": false,
          "internalType": "uint256",
          "name": "id",
          "type": "uint256"
        },
        {
          "indexed": false,
          "internalType": "uint256",
          "name": "value",
          "type": "uint256"
        }
      ],
      "name": "TransferSingle",
      "type": "event"
    },
    {
      "anonymous": false,
      "inputs": [
        {
          "indexed": false,
          "internalType": "string",
          "name": "value",
          "type": "string"
        },
        {
          "indexed": true,
          "internalType": "uint256",
          "name": "id",
          "type": "uint256"
        }
      ],
      "name": "URI",
      "type": "event"
    },
    {
      "anonymous": false,
      "inputs": [
        {
          "indexed": false,
          "internalType": "bool",
          "name": "sucess",
          "type": "bool"
        },
        {
          "indexed": false,
          "internalType": "address",
          "name": "user",
          "type": "address"
        }
      ],
      "name": "minted",
      "type": "event"
    },
    {
      "inputs": [
        {
          "internalType": "address",
          "name": "account",
          "type": "address"
        },
        {
          "internalType": "uint256",
          "name": "id",
          "type": "uint256"
        }
      ],
      "name": "balanceOf",
      "outputs": [
        {
          "internalType": "uint256",
          "name": "",
          "type": "uint256"
        }
      ],
      "stateMutability": "view",
      "type": "function"
    },
    {
      "inputs": [
        {
          "internalType": "address[]",
          "name": "accounts",
          "type": "address[]"
        },
        {
          "internalType": "uint256[]",
          "name": "ids",
          "type": "uint256[]"
        }
      ],
      "name": "balanceOfBatch",
      "outputs": [
        {
          "internalType": "uint256[]",
          "name": "",
          "type": "uint256[]"
        }
      ],
      "stateMutability": "view",
      "type": "function"
    },
    {
      "inputs": [
        {
          "internalType": "address",
          "name": "account",
          "type": "address"
        },
        {
          "internalType": "uint256",
          "name": "id",
          "type": "uint256"
        },
        {
          "internalType": "uint256",
          "name": "value",
          "type": "uint256"
        }
      ],
      "name": "burn",
      "outputs": [],
      "stateMutability": "nonpayable",
      "type": "function"
    },
    {
      "inputs": [
        {
          "internalType": "address",
          "name": "account",
          "type": "address"
        },
        {
          "internalType": "uint256[]",
          "name": "ids",
          "type": "uint256[]"
        },
        {
          "internalType": "uint256[]",
          "name": "values",
          "type": "uint256[]"
        }
      ],
      "name": "burnBatch",
      "outputs": [],
      "stateMutability": "nonpayable",
      "type": "function"
    },
    {
      "inputs": [
        {
          "internalType": "address",
          "name": "account",
          "type": "address"
        },
        {
          "internalType": "address",
          "name": "operator",
          "type": "address"
        }
      ],
      "name": "isApprovedForAll",
      "outputs": [
        {
          "internalType": "bool",
          "name": "",
          "type": "bool"
        }
      ],
      "stateMutability": "view",
      "type": "function"
    },
    {
      "inputs": [],
      "name": "owner",
      "outputs": [
        {
          "internalType": "address",
          "name": "",
          "type": "address"
        }
      ],
      "stateMutability": "view",
      "type": "function"
    },
    {
      "inputs": [],
      "name": "renounceOwnership",
      "outputs": [],
      "stateMutability": "nonpayable",
      "type": "function"
    },
    {
      "inputs": [
        {
          "internalType": "address",
          "name": "",
          "type": "address"
        },
        {
          "internalType": "address",
          "name": "",
          "type": "address"
        },
        {
          "internalType": "uint256[]",
          "name": "",
          "type": "uint256[]"
        },
        {
          "internalType": "uint256[]",
          "name": "",
          "type": "uint256[]"
        },
        {
          "internalType": "bytes",
          "name": "",
          "type": "bytes"
        }
      ],
      "name": "safeBatchTransferFrom",
      "outputs": [],
      "stateMutability": "pure",
      "type": "function"
    },
    {
      "inputs": [
        {
          "internalType": "address",
          "name": "",
          "type": "address"
        },
        {
          "internalType": "address",
          "name": "",
          "type": "address"
        },
        {
          "internalType": "uint256",
          "name": "",
          "type": "uint256"
        },
        {
          "internalType": "uint256",
          "name": "",
          "type": "uint256"
        },
        {
          "internalType": "bytes",
          "name": "",
          "type": "bytes"
        }
      ],
      "name": "safeTransferFrom",
      "outputs": [],
      "stateMutability": "pure",
      "type": "function"
    },
    {
      "inputs": [
        {
          "internalType": "address",
          "name": "operator",
          "type": "address"
        },
        {
          "internalType": "bool",
          "name": "approved",
          "type": "bool"
        }
      ],
      "name": "setApprovalForAll",
      "outputs": [],
      "stateMutability": "nonpayable",
      "type": "function"
    },
    {
      "inputs": [
        {
          "internalType": "string",
          "name": "_name",
          "type": "string"
        }
      ],
      "name": "setName",
      "outputs": [],
      "stateMutability": "nonpayable",
      "type": "function"
    },
    {
      "inputs": [
        {
          "internalType": "string",
          "name": "newuri",
          "type": "string"
        }
      ],
      "name": "setURI",
      "outputs": [],
      "stateMutability": "nonpayable",
      "type": "function"
    },
    {
      "inputs": [
        {
          "internalType": "bytes4",
          "name": "interfaceId",
          "type": "bytes4"
        }
      ],
      "name": "supportsInterface",
      "outputs": [
        {
          "internalType": "bool",
          "name": "",
          "type": "bool"
        }
      ],
      "stateMutability": "view",
      "type": "function"
    },
    {
      "inputs": [],
      "name": "title",
      "outputs": [
        {
          "internalType": "string",
          "name": "",
          "type": "string"
        }
      ],
      "stateMutability": "view",
      "type": "function"
    },
    {
      "inputs": [
        {
          "internalType": "address payable",
          "name": "to",
          "type": "address"
        },
        {
          "internalType": "uint256",
          "name": "id",
          "type": "uint256"
        },
        {
          "internalType": "uint256",
          "name": "nftamount",
          "type": "uint256"
        },
        {
          "internalType": "bytes",
          "name": "data",
          "type": "bytes"
        }
      ],
      "name": "transferNmint",
      "outputs": [],
      "stateMutability": "payable",
      "type": "function"
    },
    {
      "inputs": [
        {
          "internalType": "address",
          "name": "newOwner",
          "type": "address"
        }
      ],
      "name": "transferOwnership",
      "outputs": [],
      "stateMutability": "nonpayable",
      "type": "function"
    },
    {
      "inputs": [
        {
          "internalType": "uint256",
          "name": "_tokenid",
          "type": "uint256"
        }
      ],
      "name": "uri",
      "outputs": [
        {
          "internalType": "string",
          "name": "",
          "type": "string"
        }
      ],
      "stateMutability": "pure",
      "type": "function"
    }
  ],
  "bytecode": "0x60806040523480156200001157600080fd5b506040518060800160405280605a815260200162003ad3605a91396200003d81620000aa60201b60201c565b506200005e62000052620000c660201b60201c565b620000ce60201b60201c565b620000a46040518060400160405280600981526020017f4465426179204e465400000000000000000000000000000000000000000000008152506200019460201b60201c565b62000401565b8060029080519060200190620000c292919062000269565b5050565b600033905090565b6000600360009054906101000a900473ffffffffffffffffffffffffffffffffffffffff16905081600360006101000a81548173ffffffffffffffffffffffffffffffffffffffff021916908373ffffffffffffffffffffffffffffffffffffffff1602179055508173ffffffffffffffffffffffffffffffffffffffff168173ffffffffffffffffffffffffffffffffffffffff167f8be0079c531659141344cd1fd0a4f28419497f9722a3daafe3b4186f6b6457e060405160405180910390a35050565b620001a4620000c660201b60201c565b73ffffffffffffffffffffffffffffffffffffffff16620001ca6200023f60201b60201c565b73ffffffffffffffffffffffffffffffffffffffff161462000223576040517f08c379a00000000000000000000000000000000000000000000000000000000081526004016200021a9062000340565b60405180910390fd5b80600490805190602001906200023b92919062000269565b5050565b6000600360009054906101000a900473ffffffffffffffffffffffffffffffffffffffff16905090565b828054620002779062000373565b90600052602060002090601f0160209004810192826200029b5760008555620002e7565b82601f10620002b657805160ff1916838001178555620002e7565b82800160010185558215620002e7579182015b82811115620002e6578251825591602001919060010190620002c9565b5b509050620002f69190620002fa565b5090565b5b8082111562000315576000816000905550600101620002fb565b5090565b60006200032860208362000362565b91506200033582620003d8565b602082019050919050565b600060208201905081810360008301526200035b8162000319565b9050919050565b600082825260208201905092915050565b600060028204905060018216806200038c57607f821691505b60208210811415620003a357620003a2620003a9565b5b50919050565b7f4e487b7100000000000000000000000000000000000000000000000000000000600052602260045260246000fd5b7f4f776e61626c653a2063616c6c6572206973206e6f7420746865206f776e6572600082015250565b6136c280620004116000396000f3fe6080604052600436106100fd5760003560e01c8063715018a611610095578063c47f002711610064578063c47f002714610323578063e985e9c51461034c578063f242432a14610389578063f2fde38b146103b2578063f5298aca146103db576100fd565b8063715018a61461029c5780638348dbcb146102b35780638da5cb5b146102cf578063a22cb465146102fa576100fd565b80632eb2c2d6116100d15780632eb2c2d6146101e25780634a79d50c1461020b5780634e1273f4146102365780636b20c45414610273576100fd565b8062fdd58e1461010257806301ffc9a71461013f57806302fe53051461017c5780630e89341c146101a5575b600080fd5b34801561010e57600080fd5b5061012960048036038101906101249190612376565b610404565b6040516101369190612c12565b60405180910390f35b34801561014b57600080fd5b506101666004803603810190610161919061246d565b6104cd565b60405161017391906129cc565b60405180910390f35b34801561018857600080fd5b506101a3600480360381019061019e91906124bf565b6105af565b005b3480156101b157600080fd5b506101cc60048036038101906101c79190612500565b610637565b6040516101d99190612a10565b60405180910390f35b3480156101ee57600080fd5b5061020960048036038101906102049190612167565b610668565b005b34801561021757600080fd5b506102206106a3565b60405161022d9190612a10565b60405180910390f35b34801561024257600080fd5b5061025d60048036038101906102589190612401565b610731565b60405161026a9190612973565b60405180910390f35b34801561027f57600080fd5b5061029a600480360381019061029591906122bb565b6108e2565b005b3480156102a857600080fd5b506102b161097f565b005b6102cd60048036038101906102c891906120ab565b610a07565b005b3480156102db57600080fd5b506102e4610a67565b6040516102f191906128fe565b60405180910390f35b34801561030657600080fd5b50610321600480360381019061031c919061233a565b610a91565b005b34801561032f57600080fd5b5061034a600480360381019061034591906124bf565b610aa7565b005b34801561035857600080fd5b50610373600480360381019061036e919061212b565b610b3d565b60405161038091906129cc565b60405180910390f35b34801561039557600080fd5b506103b060048036038101906103ab9190612229565b610bd1565b005b3480156103be57600080fd5b506103d960048036038101906103d49190612082565b610c0c565b005b3480156103e757600080fd5b5061040260048036038101906103fd91906123b2565b610d04565b005b60008073ffffffffffffffffffffffffffffffffffffffff168373ffffffffffffffffffffffffffffffffffffffff161415610475576040517f08c379a000000000000000000000000000000000000000000000000000000000815260040161046c90612a72565b60405180910390fd5b60008083815260200190815260200160002060008473ffffffffffffffffffffffffffffffffffffffff1673ffffffffffffffffffffffffffffffffffffffff16815260200190815260200160002054905092915050565b60007fd9b67a26000000000000000000000000000000000000000000000000000000007bffffffffffffffffffffffffffffffffffffffffffffffffffffffff1916827bffffffffffffffffffffffffffffffffffffffffffffffffffffffff1916148061059857507f0e89341c000000000000000000000000000000000000000000000000000000007bffffffffffffffffffffffffffffffffffffffffffffffffffffffff1916827bffffffffffffffffffffffffffffffffffffffffffffffffffffffff1916145b806105a857506105a782610da1565b5b9050919050565b6105b7610e0b565b73ffffffffffffffffffffffffffffffffffffffff166105d5610a67565b73ffffffffffffffffffffffffffffffffffffffff161461062b576040517f08c379a000000000000000000000000000000000000000000000000000000000815260040161062290612b52565b60405180910390fd5b61063481610e13565b50565b606061064282610e2d565b60405160200161065291906128d1565b6040516020818303038152906040529050919050565b6040517f08c379a000000000000000000000000000000000000000000000000000000000815260040161069a90612b72565b60405180910390fd5b600480546106b090612f03565b80601f01602080910402602001604051908101604052809291908181526020018280546106dc90612f03565b80156107295780601f106106fe57610100808354040283529160200191610729565b820191906000526020600020905b81548152906001019060200180831161070c57829003601f168201915b505050505081565b60608151835114610777576040517f08c379a000000000000000000000000000000000000000000000000000000000815260040161076e90612bb2565b60405180910390fd5b6000835167ffffffffffffffff8111156107ba577f4e487b7100000000000000000000000000000000000000000000000000000000600052604160045260246000fd5b6040519080825280602002602001820160405280156107e85781602001602082028036833780820191505090505b50905060005b84518110156108d757610881858281518110610833577f4e487b7100000000000000000000000000000000000000000000000000000000600052603260045260246000fd5b6020026020010151858381518110610874577f4e487b7100000000000000000000000000000000000000000000000000000000600052603260045260246000fd5b6020026020010151610404565b8282815181106108ba577f4e487b7100000000000000000000000000000000000000000000000000000000600052603260045260246000fd5b602002602001018181525050806108d090612f66565b90506107ee565b508091505092915050565b6108ea610e0b565b73ffffffffffffffffffffffffffffffffffffffff168373ffffffffffffffffffffffffffffffffffffffff161480610930575061092f8361092a610e0b565b610b3d565b5b61096f576040517f08c379a000000000000000000000000000000000000000000000000000000000815260040161096690612ad2565b60405180910390fd5b61097a838383610fda565b505050565b610987610e0b565b73ffffffffffffffffffffffffffffffffffffffff166109a5610a67565b73ffffffffffffffffffffffffffffffffffffffff16146109fb576040517f08c379a00000000000000000000000000000000000000000000000000000000081526004016109f290612b52565b60405180910390fd5b610a0560006112d7565b565b60003490508573ffffffffffffffffffffffffffffffffffffffff166108fc829081150290604051600060405180830381858888f19350505050158015610a52573d6000803e3d6000fd5b50610a5f8585858561139d565b505050505050565b6000600360009054906101000a900473ffffffffffffffffffffffffffffffffffffffff16905090565b610aa3610a9c610e0b565b838361158b565b5050565b610aaf610e0b565b73ffffffffffffffffffffffffffffffffffffffff16610acd610a67565b73ffffffffffffffffffffffffffffffffffffffff1614610b23576040517f08c379a0000000000000000000000000000000000000000000000000000000008152600401610b1a90612b52565b60405180910390fd5b8060049080519060200190610b39929190611d83565b5050565b6000600160008473ffffffffffffffffffffffffffffffffffffffff1673ffffffffffffffffffffffffffffffffffffffff16815260200190815260200160002060008373ffffffffffffffffffffffffffffffffffffffff1673ffffffffffffffffffffffffffffffffffffffff16815260200190815260200160002060009054906101000a900460ff16905092915050565b6040517f08c379a0000000000000000000000000000000000000000000000000000000008152600401610c0390612b72565b60405180910390fd5b610c14610e0b565b73ffffffffffffffffffffffffffffffffffffffff16610c32610a67565b73ffffffffffffffffffffffffffffffffffffffff1614610c88576040517f08c379a0000000000000000000000000000000000000000000000000000000008152600401610c7f90612b52565b60405180910390fd5b600073ffffffffffffffffffffffffffffffffffffffff168173ffffffffffffffffffffffffffffffffffffffff161415610cf8576040517f08c379a0000000000000000000000000000000000000000000000000000000008152600401610cef90612a92565b60405180910390fd5b610d01816112d7565b50565b610d0c610e0b565b73ffffffffffffffffffffffffffffffffffffffff168373ffffffffffffffffffffffffffffffffffffffff161480610d525750610d5183610d4c610e0b565b610b3d565b5b610d91576040517f08c379a0000000000000000000000000000000000000000000000000000000008152600401610d8890612ad2565b60405180910390fd5b610d9c8383836116f8565b505050565b60007f01ffc9a7000000000000000000000000000000000000000000000000000000007bffffffffffffffffffffffffffffffffffffffffffffffffffffffff1916827bffffffffffffffffffffffffffffffffffffffffffffffffffffffff1916149050919050565b600033905090565b8060029080519060200190610e29929190611d83565b5050565b60606000821415610e75576040518060400160405280600181526020017f30000000000000000000000000000000000000000000000000000000000000008152509050610fd5565b600082905060005b60008214610ea7578080610e9090612f66565b915050600a82610ea09190612dd6565b9150610e7d565b60008167ffffffffffffffff811115610ee9577f4e487b7100000000000000000000000000000000000000000000000000000000600052604160045260246000fd5b6040519080825280601f01601f191660200182016040528015610f1b5781602001600182028036833780820191505090505b5090505b60008514610fce57600182610f349190612e07565b9150600a85610f439190612faf565b6030610f4f9190612d80565b60f81b818381518110610f8b577f4e487b7100000000000000000000000000000000000000000000000000000000600052603260045260246000fd5b60200101907effffffffffffffffffffffffffffffffffffffffffffffffffffffffffffff1916908160001a905350600a85610fc79190612dd6565b9450610f1f565b8093505050505b919050565b600073ffffffffffffffffffffffffffffffffffffffff168373ffffffffffffffffffffffffffffffffffffffff16141561104a576040517f08c379a000000000000000000000000000000000000000000000000000000000815260040161104190612b32565b60405180910390fd5b805182511461108e576040517f08c379a000000000000000000000000000000000000000000000000000000000815260040161108590612bd2565b60405180910390fd5b6000611098610e0b565b90506110b881856000868660405180602001604052806000815250611915565b60005b83518110156112515760008482815181106110ff577f4e487b7100000000000000000000000000000000000000000000000000000000600052603260045260246000fd5b602002602001015190506000848381518110611144577f4e487b7100000000000000000000000000000000000000000000000000000000600052603260045260246000fd5b60200260200101519050600080600084815260200190815260200160002060008973ffffffffffffffffffffffffffffffffffffffff1673ffffffffffffffffffffffffffffffffffffffff168152602001908152602001600020549050818110156111e5576040517f08c379a00000000000000000000000000000000000000000000000000000000081526004016111dc90612ab2565b60405180910390fd5b81810360008085815260200190815260200160002060008a73ffffffffffffffffffffffffffffffffffffffff1673ffffffffffffffffffffffffffffffffffffffff16815260200190815260200160002081905550505050808061124990612f66565b9150506110bb565b50600073ffffffffffffffffffffffffffffffffffffffff168473ffffffffffffffffffffffffffffffffffffffff168273ffffffffffffffffffffffffffffffffffffffff167f4a39dc06d4c0dbc64b70af90fd698a233a518aa5d07e595d983b8c0526c8f7fb86866040516112c9929190612995565b60405180910390a450505050565b6000600360009054906101000a900473ffffffffffffffffffffffffffffffffffffffff16905081600360006101000a81548173ffffffffffffffffffffffffffffffffffffffff021916908373ffffffffffffffffffffffffffffffffffffffff1602179055508173ffffffffffffffffffffffffffffffffffffffff168173ffffffffffffffffffffffffffffffffffffffff167f8be0079c531659141344cd1fd0a4f28419497f9722a3daafe3b4186f6b6457e060405160405180910390a35050565b42610708600560003373ffffffffffffffffffffffffffffffffffffffff1673ffffffffffffffffffffffffffffffffffffffff168152602001908152602001600020546113eb9190612d80565b101561154a5760048410611434576040517f08c379a000000000000000000000000000000000000000000000000000000000815260040161142b90612af2565b60405180910390fd5b60018314611477576040517f08c379a000000000000000000000000000000000000000000000000000000000815260040161146e90612b12565b60405180910390fd5b42600560003373ffffffffffffffffffffffffffffffffffffffff1673ffffffffffffffffffffffffffffffffffffffff1681526020019081526020016000208190555061150b33858585858080601f016020809104026020016040519081016040528093929190818152602001838380828437600081840152601f19601f8201169050808301925050505050505061191d565b7fbfe18cef54c6693ce93444b4b3e23805aa15e5c39cbca015b24c1208227e235260013360405161153d9291906129e7565b60405180910390a1611585565b7fbfe18cef54c6693ce93444b4b3e23805aa15e5c39cbca015b24c1208227e235260003360405161157c9291906129e7565b60405180910390a15b50505050565b8173ffffffffffffffffffffffffffffffffffffffff168373ffffffffffffffffffffffffffffffffffffffff1614156115fa576040517f08c379a00000000000000000000000000000000000000000000000000000000081526004016115f190612b92565b60405180910390fd5b80600160008573ffffffffffffffffffffffffffffffffffffffff1673ffffffffffffffffffffffffffffffffffffffff16815260200190815260200160002060008473ffffffffffffffffffffffffffffffffffffffff1673ffffffffffffffffffffffffffffffffffffffff16815260200190815260200160002060006101000a81548160ff0219169083151502179055508173ffffffffffffffffffffffffffffffffffffffff168373ffffffffffffffffffffffffffffffffffffffff167f17307eab39ab6107e8899845ad3d59bd9653f200f220920489ca2b5937696c31836040516116eb91906129cc565b60405180910390a3505050565b600073ffffffffffffffffffffffffffffffffffffffff168373ffffffffffffffffffffffffffffffffffffffff161415611768576040517f08c379a000000000000000000000000000000000000000000000000000000000815260040161175f90612b32565b60405180910390fd5b6000611772610e0b565b90506117a28185600061178487611ab3565b61178d87611ab3565b60405180602001604052806000815250611915565b600080600085815260200190815260200160002060008673ffffffffffffffffffffffffffffffffffffffff1673ffffffffffffffffffffffffffffffffffffffff16815260200190815260200160002054905082811015611839576040517f08c379a000000000000000000000000000000000000000000000000000000000815260040161183090612ab2565b60405180910390fd5b82810360008086815260200190815260200160002060008773ffffffffffffffffffffffffffffffffffffffff1673ffffffffffffffffffffffffffffffffffffffff16815260200190815260200160002081905550600073ffffffffffffffffffffffffffffffffffffffff168573ffffffffffffffffffffffffffffffffffffffff168373ffffffffffffffffffffffffffffffffffffffff167fc3d58168c5ae7397731d063d5bbf3d657854427343f4c083240f7aacaa2d0f628787604051611906929190612c2d565b60405180910390a45050505050565b505050505050565b600073ffffffffffffffffffffffffffffffffffffffff168473ffffffffffffffffffffffffffffffffffffffff16141561198d576040517f08c379a000000000000000000000000000000000000000000000000000000000815260040161198490612bf2565b60405180910390fd5b6000611997610e0b565b90506119b8816000876119a988611ab3565b6119b288611ab3565b87611915565b8260008086815260200190815260200160002060008773ffffffffffffffffffffffffffffffffffffffff1673ffffffffffffffffffffffffffffffffffffffff1681526020019081526020016000206000828254611a179190612d80565b925050819055508473ffffffffffffffffffffffffffffffffffffffff16600073ffffffffffffffffffffffffffffffffffffffff168273ffffffffffffffffffffffffffffffffffffffff167fc3d58168c5ae7397731d063d5bbf3d657854427343f4c083240f7aacaa2d0f628787604051611a95929190612c2d565b60405180910390a4611aac81600087878787611b79565b5050505050565b60606000600167ffffffffffffffff811115611af8577f4e487b7100000000000000000000000000000000000000000000000000000000600052604160045260246000fd5b604051908082528060200260200182016040528015611b265781602001602082028036833780820191505090505b5090508281600081518110611b64577f4e487b7100000000000000000000000000000000000000000000000000000000600052603260045260246000fd5b60200260200101818152505080915050919050565b611b988473ffffffffffffffffffffffffffffffffffffffff16611d60565b15611d58578373ffffffffffffffffffffffffffffffffffffffff1663f23a6e6187878686866040518663ffffffff1660e01b8152600401611bde959493929190612919565b602060405180830381600087803b158015611bf857600080fd5b505af1925050508015611c2957506040513d601f19601f82011682018060405250810190611c269190612496565b60015b611ccf57611c3561309c565b806308c379a01415611c925750611c4a613583565b80611c555750611c94565b806040517f08c379a0000000000000000000000000000000000000000000000000000000008152600401611c899190612a10565b60405180910390fd5b505b6040517f08c379a0000000000000000000000000000000000000000000000000000000008152600401611cc690612a32565b60405180910390fd5b63f23a6e6160e01b7bffffffffffffffffffffffffffffffffffffffffffffffffffffffff1916817bffffffffffffffffffffffffffffffffffffffffffffffffffffffff191614611d56576040517f08c379a0000000000000000000000000000000000000000000000000000000008152600401611d4d90612a52565b60405180910390fd5b505b505050505050565b6000808273ffffffffffffffffffffffffffffffffffffffff163b119050919050565b828054611d8f90612f03565b90600052602060002090601f016020900481019282611db15760008555611df8565b82601f10611dca57805160ff1916838001178555611df8565b82800160010185558215611df8579182015b82811115611df7578251825591602001919060010190611ddc565b5b509050611e059190611e09565b5090565b5b80821115611e22576000816000905550600101611e0a565b5090565b6000611e39611e3484612c7b565b612c56565b90508083825260208201905082856020860282011115611e5857600080fd5b60005b85811015611e885781611e6e8882611f3c565b845260208401935060208301925050600181019050611e5b565b5050509392505050565b6000611ea5611ea084612ca7565b612c56565b90508083825260208201905082856020860282011115611ec457600080fd5b60005b85811015611ef45781611eda888261206d565b845260208401935060208301925050600181019050611ec7565b5050509392505050565b6000611f11611f0c84612cd3565b612c56565b905082815260208101848484011115611f2957600080fd5b611f34848285612ec1565b509392505050565b600081359050611f4b81613619565b92915050565b600081359050611f6081613630565b92915050565b600082601f830112611f7757600080fd5b8135611f87848260208601611e26565b91505092915050565b600082601f830112611fa157600080fd5b8135611fb1848260208601611e92565b91505092915050565b600081359050611fc981613647565b92915050565b600081359050611fde8161365e565b92915050565b600081519050611ff38161365e565b92915050565b60008083601f84011261200b57600080fd5b8235905067ffffffffffffffff81111561202457600080fd5b60208301915083600182028301111561203c57600080fd5b9250929050565b600082601f83011261205457600080fd5b8135612064848260208601611efe565b91505092915050565b60008135905061207c81613675565b92915050565b60006020828403121561209457600080fd5b60006120a284828501611f3c565b91505092915050565b6000806000806000608086880312156120c357600080fd5b60006120d188828901611f51565b95505060206120e28882890161206d565b94505060406120f38882890161206d565b935050606086013567ffffffffffffffff81111561211057600080fd5b61211c88828901611ff9565b92509250509295509295909350565b6000806040838503121561213e57600080fd5b600061214c85828601611f3c565b925050602061215d85828601611f3c565b9150509250929050565b60008060008060008060a0878903121561218057600080fd5b600061218e89828a01611f3c565b965050602061219f89828a01611f3c565b955050604087013567ffffffffffffffff8111156121bc57600080fd5b6121c889828a01611f90565b945050606087013567ffffffffffffffff8111156121e557600080fd5b6121f189828a01611f90565b935050608087013567ffffffffffffffff81111561220e57600080fd5b61221a89828a01611ff9565b92509250509295509295509295565b60008060008060008060a0878903121561224257600080fd5b600061225089828a01611f3c565b965050602061226189828a01611f3c565b955050604061227289828a0161206d565b945050606061228389828a0161206d565b935050608087013567ffffffffffffffff8111156122a057600080fd5b6122ac89828a01611ff9565b92509250509295509295509295565b6000806000606084860312156122d057600080fd5b60006122de86828701611f3c565b935050602084013567ffffffffffffffff8111156122fb57600080fd5b61230786828701611f90565b925050604084013567ffffffffffffffff81111561232457600080fd5b61233086828701611f90565b9150509250925092565b6000806040838503121561234d57600080fd5b600061235b85828601611f3c565b925050602061236c85828601611fba565b9150509250929050565b6000806040838503121561238957600080fd5b600061239785828601611f3c565b92505060206123a88582860161206d565b9150509250929050565b6000806000606084860312156123c757600080fd5b60006123d586828701611f3c565b93505060206123e68682870161206d565b92505060406123f78682870161206d565b9150509250925092565b6000806040838503121561241457600080fd5b600083013567ffffffffffffffff81111561242e57600080fd5b61243a85828601611f66565b925050602083013567ffffffffffffffff81111561245757600080fd5b61246385828601611f90565b9150509250929050565b60006020828403121561247f57600080fd5b600061248d84828501611fcf565b91505092915050565b6000602082840312156124a857600080fd5b60006124b684828501611fe4565b91505092915050565b6000602082840312156124d157600080fd5b600082013567ffffffffffffffff8111156124eb57600080fd5b6124f784828501612043565b91505092915050565b60006020828403121561251257600080fd5b60006125208482850161206d565b91505092915050565b600061253583836128b3565b60208301905092915050565b61254a81612e3b565b82525050565b600061255b82612d14565b6125658185612d42565b935061257083612d04565b8060005b838110156125a15781516125888882612529565b975061259383612d35565b925050600181019050612574565b5085935050505092915050565b6125b781612e5f565b82525050565b60006125c882612d1f565b6125d28185612d53565b93506125e2818560208601612ed0565b6125eb816130be565b840191505092915050565b600061260182612d2a565b61260b8185612d64565b935061261b818560208601612ed0565b612624816130be565b840191505092915050565b600061263a82612d2a565b6126448185612d75565b9350612654818560208601612ed0565b80840191505092915050565b600061266d603483612d64565b9150612678826130dc565b604082019050919050565b6000612690602883612d64565b915061269b8261312b565b604082019050919050565b60006126b3602b83612d64565b91506126be8261317a565b604082019050919050565b60006126d6602683612d64565b91506126e1826131c9565b604082019050919050565b60006126f9602483612d64565b915061270482613218565b604082019050919050565b600061271c602983612d64565b915061272782613267565b604082019050919050565b600061273f600d83612d64565b915061274a826132b6565b602082019050919050565b6000612762601483612d64565b915061276d826132df565b602082019050919050565b6000612785602383612d64565b915061279082613308565b604082019050919050565b60006127a8605183612d75565b91506127b382613357565b605182019050919050565b60006127cb600583612d75565b91506127d6826133cc565b600582019050919050565b60006127ee602083612d64565b91506127f9826133f5565b602082019050919050565b6000612811601b83612d64565b915061281c8261341e565b602082019050919050565b6000612834602983612d64565b915061283f82613447565b604082019050919050565b6000612857602983612d64565b915061286282613496565b604082019050919050565b600061287a602883612d64565b9150612885826134e5565b604082019050919050565b600061289d602183612d64565b91506128a882613534565b604082019050919050565b6128bc81612eb7565b82525050565b6128cb81612eb7565b82525050565b60006128dc8261279b565b91506128e8828461262f565b91506128f3826127be565b915081905092915050565b60006020820190506129136000830184612541565b92915050565b600060a08201905061292e6000830188612541565b61293b6020830187612541565b61294860408301866128c2565b61295560608301856128c2565b818103608083015261296781846125bd565b90509695505050505050565b6000602082019050818103600083015261298d8184612550565b905092915050565b600060408201905081810360008301526129af8185612550565b905081810360208301526129c38184612550565b90509392505050565b60006020820190506129e160008301846125ae565b92915050565b60006040820190506129fc60008301856125ae565b612a096020830184612541565b9392505050565b60006020820190508181036000830152612a2a81846125f6565b905092915050565b60006020820190508181036000830152612a4b81612660565b9050919050565b60006020820190508181036000830152612a6b81612683565b9050919050565b60006020820190508181036000830152612a8b816126a6565b9050919050565b60006020820190508181036000830152612aab816126c9565b9050919050565b60006020820190508181036000830152612acb816126ec565b9050919050565b60006020820190508181036000830152612aeb8161270f565b9050919050565b60006020820190508181036000830152612b0b81612732565b9050919050565b60006020820190508181036000830152612b2b81612755565b9050919050565b60006020820190508181036000830152612b4b81612778565b9050919050565b60006020820190508181036000830152612b6b816127e1565b9050919050565b60006020820190508181036000830152612b8b81612804565b9050919050565b60006020820190508181036000830152612bab81612827565b9050919050565b60006020820190508181036000830152612bcb8161284a565b9050919050565b60006020820190508181036000830152612beb8161286d565b9050919050565b60006020820190508181036000830152612c0b81612890565b9050919050565b6000602082019050612c2760008301846128c2565b92915050565b6000604082019050612c4260008301856128c2565b612c4f60208301846128c2565b9392505050565b6000612c60612c71565b9050612c6c8282612f35565b919050565b6000604051905090565b600067ffffffffffffffff821115612c9657612c9561306d565b5b602082029050602081019050919050565b600067ffffffffffffffff821115612cc257612cc161306d565b5b602082029050602081019050919050565b600067ffffffffffffffff821115612cee57612ced61306d565b5b612cf7826130be565b9050602081019050919050565b6000819050602082019050919050565b600081519050919050565b600081519050919050565b600081519050919050565b6000602082019050919050565b600082825260208201905092915050565b600082825260208201905092915050565b600082825260208201905092915050565b600081905092915050565b6000612d8b82612eb7565b9150612d9683612eb7565b9250827fffffffffffffffffffffffffffffffffffffffffffffffffffffffffffffffff03821115612dcb57612dca612fe0565b5b828201905092915050565b6000612de182612eb7565b9150612dec83612eb7565b925082612dfc57612dfb61300f565b5b828204905092915050565b6000612e1282612eb7565b9150612e1d83612eb7565b925082821015612e3057612e2f612fe0565b5b828203905092915050565b6000612e4682612e97565b9050919050565b6000612e5882612e97565b9050919050565b60008115159050919050565b60007fffffffff0000000000000000000000000000000000000000000000000000000082169050919050565b600073ffffffffffffffffffffffffffffffffffffffff82169050919050565b6000819050919050565b82818337600083830152505050565b60005b83811015612eee578082015181840152602081019050612ed3565b83811115612efd576000848401525b50505050565b60006002820490506001821680612f1b57607f821691505b60208210811415612f2f57612f2e61303e565b5b50919050565b612f3e826130be565b810181811067ffffffffffffffff82111715612f5d57612f5c61306d565b5b80604052505050565b6000612f7182612eb7565b91507fffffffffffffffffffffffffffffffffffffffffffffffffffffffffffffffff821415612fa457612fa3612fe0565b5b600182019050919050565b6000612fba82612eb7565b9150612fc583612eb7565b925082612fd557612fd461300f565b5b828206905092915050565b7f4e487b7100000000000000000000000000000000000000000000000000000000600052601160045260246000fd5b7f4e487b7100000000000000000000000000000000000000000000000000000000600052601260045260246000fd5b7f4e487b7100000000000000000000000000000000000000000000000000000000600052602260045260246000fd5b7f4e487b7100000000000000000000000000000000000000000000000000000000600052604160045260246000fd5b600060033d11156130bb5760046000803e6130b86000516130cf565b90505b90565b6000601f19601f8301169050919050565b60008160e01c9050919050565b7f455243313135353a207472616e7366657220746f206e6f6e204552433131353560008201527f526563656976657220696d706c656d656e746572000000000000000000000000602082015250565b7f455243313135353a204552433131353552656365697665722072656a6563746560008201527f6420746f6b656e73000000000000000000000000000000000000000000000000602082015250565b7f455243313135353a2062616c616e636520717565727920666f7220746865207a60008201527f65726f2061646472657373000000000000000000000000000000000000000000602082015250565b7f4f776e61626c653a206e6577206f776e657220697320746865207a65726f206160008201527f6464726573730000000000000000000000000000000000000000000000000000602082015250565b7f455243313135353a206275726e20616d6f756e7420657863656564732062616c60008201527f616e636500000000000000000000000000000000000000000000000000000000602082015250565b7f455243313135353a2063616c6c6572206973206e6f74206f776e6572206e6f7260008201527f20617070726f7665640000000000000000000000000000000000000000000000602082015250565b7f496420697320696e76616c696400000000000000000000000000000000000000600082015250565b7f496e76616c696420616d6f756e7420696e707574000000000000000000000000600082015250565b7f455243313135353a206275726e2066726f6d20746865207a65726f206164647260008201527f6573730000000000000000000000000000000000000000000000000000000000602082015250565b7f68747470733a2f2f697066732e696f2f697066732f6261667962656968337a3660008201527f77616e70347574753761376b67737734786161327a6d756f6b7969707461716a60208201527f743335706d65706e32726971677074712f000000000000000000000000000000604082015250565b7f2e6a736f6e000000000000000000000000000000000000000000000000000000600082015250565b7f4f776e61626c653a2063616c6c6572206973206e6f7420746865206f776e6572600082015250565b7f44654261793a2043616e6e6f74207472616e73666572204e6674730000000000600082015250565b7f455243313135353a2073657474696e6720617070726f76616c2073746174757360008201527f20666f722073656c660000000000000000000000000000000000000000000000602082015250565b7f455243313135353a206163636f756e747320616e6420696473206c656e67746860008201527f206d69736d617463680000000000000000000000000000000000000000000000602082015250565b7f455243313135353a2069647320616e6420616d6f756e7473206c656e6774682060008201527f6d69736d61746368000000000000000000000000000000000000000000000000602082015250565b7f455243313135353a206d696e7420746f20746865207a65726f2061646472657360008201527f7300000000000000000000000000000000000000000000000000000000000000602082015250565b600060443d101561359357613616565b61359b612c71565b60043d036004823e80513d602482011167ffffffffffffffff821117156135c3575050613616565b808201805167ffffffffffffffff8111156135e15750505050613616565b80602083010160043d0385018111156135fe575050505050613616565b61360d82602001850186612f35565b82955050505050505b90565b61362281612e3b565b811461362d57600080fd5b50565b61363981612e4d565b811461364457600080fd5b50565b61365081612e5f565b811461365b57600080fd5b50565b61366781612e6b565b811461367257600080fd5b50565b61367e81612eb7565b811461368957600080fd5b5056fea26469706673582212204e7479b656038cc7eb5a1551cb88c82e500056e3c078e107b988b6829a577ffe64736f6c6343000804003368747470733a2f2f697066732e696f2f697066732f6261667962656968337a3677616e70347574753761376b67737734786161327a6d756f6b7969707461716a743335706d65706e32726971677074712f7b69647d2e6a736f6e",
  "linkReferences": {},
  "deployedLinkReferences": {}
}